:03000000020C0BE4
:0C0C0B00787FE4F6D8FD75812E020C52B3
:100D1600323030303A0020003530303A0032303050
:100D26003A003130303A00496E76616C6964204988
:100D36006E70757400323030302C003530302C0037
:100D46003230302C0031303000436F6C6C65637488
:100D560020436173680054727920416761696E00AF
:100E4C00C101C100021900140212001E020A000A9C
:100E5C000208000A0314000000060C303030303059
:050E6C00000217000068
:100DEE00E4F5A0C282C280C2817F38FE120EDD12EF
:100DFE000E977F067E00120EDD120E977F0C7E0080
:100E0E00120EDD120E97120ED9120E977F807E00F3
:030E1E00020EDDE4
:040E97007F047E0056
:100E9B00E4FDFCC3ED9FEC9E5015E4FBFA0BBB008D
:0F0EAB00010ABA01F8BB7EF50DBD00010C80E411
:010EBA002215
:060D66007B007A00791405
:100D6C008E248F258B268A2789287C007D64120B84
:100D7C00087E007F0ACFCDCFCECCCE120B08EF244D
:100D8C0030120AC2AE24AF257C007D0A120B08ED8E
:0E0D9C002430AB26AA27A928900001020AD411
:040ED9007F017E0017
:100EDD00C280C281D2828FA07F0A7E00120E9BC279
:020EED0082225F
:100F0200D280C281D2828FA07F0A7E00120E9BC243
:020F1200822239
:060E21007B007A00791449
:100E27008B2C8A2D892EAB2CAA2DA92E120AA960EC
:100E370013052EE52E7002052D14F9120AA9FF12CB
:050E47000F0280E22211
:100F1400758920758DCC759850D28ED2ACD2AF2203
:080F57008F993001FDC2012257
:100E72008B1B8A1C891DAB1BAA1CA91D120AA96007
:100E820013051DE51D7002051C14F9120AA9FF12B3
:050E92000F5780E22271
:0A0F4300E4FF20000122C200AF9974
:010F4D002281
:03002300020F24A5
:100F2400309905C299D20132309804C298D2003265
:100C97007F807E00120EDD7BFF7A0D7916120E27FC
:100CA700AF1AAE19120D66120E217BFF7A0D791C51
:100CB700120E277BFF7A0D791E120E27AF13AE1285
:100CC700120D66120E217FC07E00120EDD7BFF7AA9
:100CD7000D7923120E277B007A007914AF0BAE0A29
:100CE700120D6C120E217BFF7A0D791C120E277BD9
:100CF700FF7A0D7928120E277B007A007914AF0945
:0F0D0700AE08120D6C120E217FB87E0B020E9BF0
:100EBB007FC07E00120EDD7BFF7A0D792D120E277F
:0E0ECB007FD07E07120E9B7F017E00020EDD9F
:100DAA007F807E00120EDDE51A451960097BFF7A05
:100DBA000D793B120E27E513451260097BFF7A0D68
:100DCA007941120E27E50B450A60097BFF7A0D79F6
:100DDA0046120E27E509450860097BFF7A0D794B13
:040DEA00120E27229C
:10080000851924851A25851226851327850A2885AA
:100810000B2985082A85092BAE17AF187C007D644B
:10082000120B08ED4C6006120EBB0209E8AE17AFC2
:10083000187C077DD0120B08EF4E604ED3E525944F
:1008400000E52494004043D3EF9525EE9524501FF6
:10085000C3E5259FF525E5249EF5247C077DD01270
:100860000AF6C3E5189FF518E5179EF517801BAE2D
:1008700024AF257C077DD0120AF6C3E5189FF51832
:10088000E5179EF517E4F524F525AE17AF187C01A2
:100890007DF4120B08EF4E604ED3E5279400E52659
:1008A00094004043D3EF9527EE9526501FC3E527CC
:1008B0009FF527E5269EF5267C017DF4120AF6C3F6
:1008C000E5189FF518E5179EF517801BAE26AF2794
:1008D0007C017DF4120AF6C3E5189FF518E5179E12
:1008E000F517E4F526F527AE17AF187C007DC81282
:1008F0000B08EF4E604ED3E5299400E528940040A4
:1009000043D3EF9529EE9528501FC3E5299FF5297C
:10091000E5289EF5287C007DC8120AF6C3E5189FDD
:10092000F518E5179EF517801BAE28AF297C007DD2
:10093000C8120AF6C3E5189FF518E5179EF517E4E7
:10094000F528F529AE17AF187C007D64120B08EF6F
:100950004E604ED3E52B9400E52A94004043D3EF3C
:10096000952BEE952A501FC3E52B9FF52BE52A9E6C
:10097000F52A7C007D64120AF6C3E5189FF518E598
:10098000179EF517801BAE2AAF2B7C007D64120AE0
:10099000F6C3E5189FF518E5179EF517E4F52AF557
:1009A0002BE5184517702685241985251A852612EA
:1009B00085271385280A85290B852A08852B097F19
:1009C000C0FE120EDD7BFF7A0D794F800D7FC07E59
:1009D00000120EDD7BFF7A0D795C120E277FD07E30
:0709E00007120E9B120ED955
:0109E70022ED
:090F4E00120DEE120F140209E865
:1009E800E4F521F522F523120F438F21EF7005124C
:1009F8000DAA80ECE521249C7008120ED9120C97E0
:100A08008006120EBB1209E8120ED9120DAA7FC079
:100A18007E00120EDD7F647E00120E9B8007E521AA
:100A2800FD7C007007120F438F2180F2E5216430AE
:100A38006006ED640D4C7006120EBB1209E8E52144
:100A4800C394304027E521D394395020E5239404FA
:100A5800E52294005016AF21120F02740C2523F8DA
:100A6800A6210523E523701F0522801BE521640DBF
:100A78007009740C2523F8E4F68013120EBB1209D2
:100A8800E88004E52170B7120F438F2180F57B00C1
:0E0A98007A00790C120B5D8E178F1812080071
:030AA6000209E85A
:100C1700020F4EE493A3F8E493A34003F68001F296
:100C270008DFF48029E493A3F85407240CC8C333DE
:100C3700C4540F4420C8834004F456800146F6DFAD
:100C4700E4800B0102040810204080900E4CE47EE3
:100C5700019360BCA3FF543F30E509541FFEE493A2
:100C6700A360010ECF54C025E060A840B8E493A369
:100C7700FAE493A3F8E493A3C8C582C8CAC583CA94
:100C8700F0A3C8C582C8CAC583CADFE9DEE780BE4C
:010E71000080
:100AA900BB010689828A83E0225002E722BBFE024B
:090AB900E32289828A83E493227E
:100AC200BB010689828A83F0225002F722BBFE0113
:020AD200F3220D
:100AD400F8BB010DE58229F582E5833AF583E8F058
:100AE400225006E92582C8F622BBFE05E92582C804
:020AF400F222EC
:100AF600EF8DF0A4A8F0CF8CF0A428CE8DF0A42E14
:020B0600FE22CD
:100B0800BC000BBE0029EF8DF084FFADF022E4CCD1
:100B1800F875F008EF2FFFEE33FEEC33FCEE9DEC9A
:100B2800984005FCEE9DFE0FD5F0E9E4CEFD22EDE0
:100B3800F8F5F0EE8420D21CFEADF075F008EF2F2A
:100B4800FFED33FD4007985006D5F0F222C398FD1B
:050B58000FD5F0EA22B8
:100B5D008B248A258926AB24AA25A926120AA9FF4A
:100B6D00120EEF500D74012526F526E43525F525D9
:100B7D0080E4D202AB24AA25A926120AA9FF642B70
:100B8D006004EFB42D1BAB240526E526AA257002C3
:100B9D00052514F9120AA9642D6003D38001C392AF
:100BAD0002E4F527F528AB24AA25A926120AA9FFE8
:100BBD00120F345036AB24AA25A926120AA9FF33E9
:100BCD0095E0FEEF24D0FBEE34FFFAAE27AF287C84
:100BDD00007D0A120AF6EF2BF528EE3AF52774017F
:100BED002526F526E43525F52580BB300206AE27F2
:0E0BFD00AF288009C3E49528FFE49527FE2267
:0F0F3400EFC394304007EF943A50028001C3227C
:100EEF00EFC394094005EF940E4003BF2003D38056
:030EFF0001C3220A
:00000001FF
